{
  "address": "0x1150B9fA47472d55Cc63509B24EEE16a3D8BD682",
  "abi": [
    {
      "inputs": [
        {
          "internalType": "contract IERC20",
          "name": "_lep",
          "type": "address"
        }
      ],
      "stateMutability": "nonpayable",
      "type": "constructor"
    },
    {
      "anonymous": false,
      "inputs": [
        {
          "indexed": true,
          "internalType": "address",
          "name": "user",
          "type": "address"
        },
        {
          "indexed": true,
          "internalType": "uint256",
          "name": "pid",
          "type": "uint256"
        },
        {
          "indexed": false,
          "internalType": "uint256",
          "name": "amount",
          "type": "uint256"
        },
        {
          "indexed": true,
          "internalType": "address",
          "name": "to",
          "type": "address"
        }
      ],
      "name": "Deposit",
      "type": "event"
    },
    {
      "anonymous": false,
      "inputs": [
        {
          "indexed": true,
          "internalType": "address",
          "name": "user",
          "type": "address"
        },
        {
          "indexed": true,
          "internalType": "uint256",
          "name": "pid",
          "type": "uint256"
        },
        {
          "indexed": false,
          "internalType": "uint256",
          "name": "amount",
          "type": "uint256"
        },
        {
          "indexed": true,
          "internalType": "address",
          "name": "to",
          "type": "address"
        }
      ],
      "name": "EmergencyWithdraw",
      "type": "event"
    },
    {
      "anonymous": false,
      "inputs": [
        {
          "indexed": true,
          "internalType": "address",
          "name": "user",
          "type": "address"
        },
        {
          "indexed": true,
          "internalType": "uint256",
          "name": "pid",
          "type": "uint256"
        },
        {
          "indexed": false,
          "internalType": "uint256",
          "name": "amount",
          "type": "uint256"
        }
      ],
      "name": "Harvest",
      "type": "event"
    },
    {
      "anonymous": false,
      "inputs": [
        {
          "indexed": false,
          "internalType": "uint256",
          "name": "lepPerSecond",
          "type": "uint256"
        }
      ],
      "name": "LogLepPerSecond",
      "type": "event"
    },
    {
      "anonymous": false,
      "inputs": [
        {
          "indexed": true,
          "internalType": "uint256",
          "name": "pid",
          "type": "uint256"
        },
        {
          "indexed": false,
          "internalType": "uint256",
          "name": "allocPoint",
          "type": "uint256"
        },
        {
          "indexed": true,
          "internalType": "contract IERC20",
          "name": "lpToken",
          "type": "address"
        },
        {
          "indexed": true,
          "internalType": "contract IRewarder",
          "name": "rewarder",
          "type": "address"
        }
      ],
      "name": "LogPoolAddition",
      "type": "event"
    },
    {
      "anonymous": false,
      "inputs": [
        {
          "indexed": true,
          "internalType": "uint256",
          "name": "pid",
          "type": "uint256"
        },
        {
          "indexed": false,
          "internalType": "uint256",
          "name": "allocPoint",
          "type": "uint256"
        },
        {
          "indexed": true,
          "internalType": "contract IRewarder",
          "name": "rewarder",
          "type": "address"
        },
        {
          "indexed": false,
          "internalType": "bool",
          "name": "overwrite",
          "type": "bool"
        }
      ],
      "name": "LogSetPool",
      "type": "event"
    },
    {
      "anonymous": false,
      "inputs": [
        {
          "indexed": true,
          "internalType": "uint256",
          "name": "pid",
          "type": "uint256"
        },
        {
          "indexed": false,
          "internalType": "uint64",
          "name": "lastRewardTime",
          "type": "uint64"
        },
        {
          "indexed": false,
          "internalType": "uint256",
          "name": "lpSupply",
          "type": "uint256"
        },
        {
          "indexed": false,
          "internalType": "uint256",
          "name": "accLepPerShare",
          "type": "uint256"
        }
      ],
      "name": "LogUpdatePool",
      "type": "event"
    },
    {
      "anonymous": false,
      "inputs": [
        {
          "indexed": true,
          "internalType": "address",
          "name": "previousOwner",
          "type": "address"
        },
        {
          "indexed": true,
          "internalType": "address",
          "name": "newOwner",
          "type": "address"
        }
      ],
      "name": "OwnershipTransferred",
      "type": "event"
    },
    {
      "anonymous": false,
      "inputs": [
        {
          "indexed": true,
          "internalType": "address",
          "name": "user",
          "type": "address"
        },
        {
          "indexed": true,
          "internalType": "uint256",
          "name": "pid",
          "type": "uint256"
        },
        {
          "indexed": false,
          "internalType": "uint256",
          "name": "amount",
          "type": "uint256"
        },
        {
          "indexed": true,
          "internalType": "address",
          "name": "to",
          "type": "address"
        }
      ],
      "name": "Withdraw",
      "type": "event"
    },
    {
      "inputs": [],
      "name": "LEP",
      "outputs": [
        {
          "internalType": "contract IERC20",
          "name": "",
          "type": "address"
        }
      ],
      "stateMutability": "view",
      "type": "function"
    },
    {
      "inputs": [
        {
          "internalType": "uint256",
          "name": "allocPoint",
          "type": "uint256"
        },
        {
          "internalType": "contract IERC20",
          "name": "_lpToken",
          "type": "address"
        },
        {
          "internalType": "contract IRewarder",
          "name": "_rewarder",
          "type": "address"
        }
      ],
      "name": "add",
      "outputs": [],
      "stateMutability": "nonpayable",
      "type": "function"
    },
    {
      "inputs": [
        {
          "internalType": "bytes[]",
          "name": "calls",
          "type": "bytes[]"
        },
        {
          "internalType": "bool",
          "name": "revertOnFail",
          "type": "bool"
        }
      ],
      "name": "batch",
      "outputs": [
        {
          "internalType": "bool[]",
          "name": "successes",
          "type": "bool[]"
        },
        {
          "internalType": "bytes[]",
          "name": "results",
          "type": "bytes[]"
        }
      ],
      "stateMutability": "payable",
      "type": "function"
    },
    {
      "inputs": [],
      "name": "claimOwnership",
      "outputs": [],
      "stateMutability": "nonpayable",
      "type": "function"
    },
    {
      "inputs": [
        {
          "internalType": "uint256",
          "name": "pid",
          "type": "uint256"
        },
        {
          "internalType": "uint256",
          "name": "amount",
          "type": "uint256"
        },
        {
          "internalType": "address",
          "name": "to",
          "type": "address"
        }
      ],
      "name": "deposit",
      "outputs": [],
      "stateMutability": "nonpayable",
      "type": "function"
    },
    {
      "inputs": [
        {
          "internalType": "uint256",
          "name": "pid",
          "type": "uint256"
        },
        {
          "internalType": "address",
          "name": "to",
          "type": "address"
        }
      ],
      "name": "emergencyWithdraw",
      "outputs": [],
      "stateMutability": "nonpayable",
      "type": "function"
    },
    {
      "inputs": [
        {
          "internalType": "uint256",
          "name": "pid",
          "type": "uint256"
        },
        {
          "internalType": "address",
          "name": "to",
          "type": "address"
        }
      ],
      "name": "harvest",
      "outputs": [],
      "stateMutability": "nonpayable",
      "type": "function"
    },
    {
      "inputs": [],
      "name": "lepPerSecond",
      "outputs": [
        {
          "internalType": "uint256",
          "name": "",
          "type": "uint256"
        }
      ],
      "stateMutability": "view",
      "type": "function"
    },
    {
      "inputs": [
        {
          "internalType": "uint256",
          "name": "",
          "type": "uint256"
        }
      ],
      "name": "lpToken",
      "outputs": [
        {
          "internalType": "contract IERC20",
          "name": "",
          "type": "address"
        }
      ],
      "stateMutability": "view",
      "type": "function"
    },
    {
      "inputs": [
        {
          "internalType": "uint256[]",
          "name": "pids",
          "type": "uint256[]"
        }
      ],
      "name": "massUpdatePools",
      "outputs": [],
      "stateMutability": "nonpayable",
      "type": "function"
    },
    {
      "inputs": [
        {
          "internalType": "uint256",
          "name": "_pid",
          "type": "uint256"
        }
      ],
      "name": "migrate",
      "outputs": [],
      "stateMutability": "nonpayable",
      "type": "function"
    },
    {
      "inputs": [],
      "name": "migrator",
      "outputs": [
        {
          "internalType": "contract IMigratorChef",
          "name": "",
          "type": "address"
        }
      ],
      "stateMutability": "view",
      "type": "function"
    },
    {
      "inputs": [],
      "name": "owner",
      "outputs": [
        {
          "internalType": "address",
          "name": "",
          "type": "address"
        }
      ],
      "stateMutability": "view",
      "type": "function"
    },
    {
      "inputs": [
        {
          "internalType": "uint256",
          "name": "_pid",
          "type": "uint256"
        },
        {
          "internalType": "address",
          "name": "_user",
          "type": "address"
        }
      ],
      "name": "pendingLep",
      "outputs": [
        {
          "internalType": "uint256",
          "name": "pending",
          "type": "uint256"
        }
      ],
      "stateMutability": "view",
      "type": "function"
    },
    {
      "inputs": [],
      "name": "pendingOwner",
      "outputs": [
        {
          "internalType": "address",
          "name": "",
          "type": "address"
        }
      ],
      "stateMutability": "view",
      "type": "function"
    },
    {
      "inputs": [
        {
          "internalType": "contract IERC20",
          "name": "token",
          "type": "address"
        },
        {
          "internalType": "address",
          "name": "from",
          "type": "address"
        },
        {
          "internalType": "address",
          "name": "to",
          "type": "address"
        },
        {
          "internalType": "uint256",
          "name": "amount",
          "type": "uint256"
        },
        {
          "internalType": "uint256",
          "name": "deadline",
          "type": "uint256"
        },
        {
          "internalType": "uint8",
          "name": "v",
          "type": "uint8"
        },
        {
          "internalType": "bytes32",
          "name": "r",
          "type": "bytes32"
        },
        {
          "internalType": "bytes32",
          "name": "s",
          "type": "bytes32"
        }
      ],
      "name": "permitToken",
      "outputs": [],
      "stateMutability": "nonpayable",
      "type": "function"
    },
    {
      "inputs": [
        {
          "internalType": "uint256",
          "name": "",
          "type": "uint256"
        }
      ],
      "name": "poolInfo",
      "outputs": [
        {
          "internalType": "uint128",
          "name": "accLepPerShare",
          "type": "uint128"
        },
        {
          "internalType": "uint64",
          "name": "lastRewardTime",
          "type": "uint64"
        },
        {
          "internalType": "uint64",
          "name": "allocPoint",
          "type": "uint64"
        }
      ],
      "stateMutability": "view",
      "type": "function"
    },
    {
      "inputs": [],
      "name": "poolLength",
      "outputs": [
        {
          "internalType": "uint256",
          "name": "pools",
          "type": "uint256"
        }
      ],
      "stateMutability": "view",
      "type": "function"
    },
    {
      "inputs": [
        {
          "internalType": "uint256",
          "name": "",
          "type": "uint256"
        }
      ],
      "name": "rewarder",
      "outputs": [
        {
          "internalType": "contract IRewarder",
          "name": "",
          "type": "address"
        }
      ],
      "stateMutability": "view",
      "type": "function"
    },
    {
      "inputs": [
        {
          "internalType": "uint256",
          "name": "_pid",
          "type": "uint256"
        },
        {
          "internalType": "uint256",
          "name": "_allocPoint",
          "type": "uint256"
        },
        {
          "internalType": "contract IRewarder",
          "name": "_rewarder",
          "type": "address"
        },
        {
          "internalType": "bool",
          "name": "overwrite",
          "type": "bool"
        }
      ],
      "name": "set",
      "outputs": [],
      "stateMutability": "nonpayable",
      "type": "function"
    },
    {
      "inputs": [
        {
          "internalType": "uint256",
          "name": "_lepPerSecond",
          "type": "uint256"
        }
      ],
      "name": "setLepPerSecond",
      "outputs": [],
      "stateMutability": "nonpayable",
      "type": "function"
    },
    {
      "inputs": [
        {
          "internalType": "contract IMigratorChef",
          "name": "_migrator",
          "type": "address"
        }
      ],
      "name": "setMigrator",
      "outputs": [],
      "stateMutability": "nonpayable",
      "type": "function"
    },
    {
      "inputs": [],
      "name": "totalAllocPoint",
      "outputs": [
        {
          "internalType": "uint256",
          "name": "",
          "type": "uint256"
        }
      ],
      "stateMutability": "view",
      "type": "function"
    },
    {
      "inputs": [
        {
          "internalType": "address",
          "name": "newOwner",
          "type": "address"
        },
        {
          "internalType": "bool",
          "name": "direct",
          "type": "bool"
        },
        {
          "internalType": "bool",
          "name": "renounce",
          "type": "bool"
        }
      ],
      "name": "transferOwnership",
      "outputs": [],
      "stateMutability": "nonpayable",
      "type": "function"
    },
    {
      "inputs": [
        {
          "internalType": "uint256",
          "name": "pid",
          "type": "uint256"
        }
      ],
      "name": "updatePool",
      "outputs": [
        {
          "components": [
            {
              "internalType": "uint128",
              "name": "accLepPerShare",
              "type": "uint128"
            },
            {
              "internalType": "uint64",
              "name": "lastRewardTime",
              "type": "uint64"
            },
            {
              "internalType": "uint64",
              "name": "allocPoint",
              "type": "uint64"
            }
          ],
          "internalType": "struct MiniChefV2.PoolInfo",
          "name": "pool",
          "type": "tuple"
        }
      ],
      "stateMutability": "nonpayable",
      "type": "function"
    },
    {
      "inputs": [
        {
          "internalType": "uint256",
          "name": "",
          "type": "uint256"
        },
        {
          "internalType": "address",
          "name": "",
          "type": "address"
        }
      ],
      "name": "userInfo",
      "outputs": [
        {
          "internalType": "uint256",
          "name": "amount",
          "type": "uint256"
        },
        {
          "internalType": "int256",
          "name": "rewardDebt",
          "type": "int256"
        }
      ],
      "stateMutability": "view",
      "type": "function"
    },
    {
      "inputs": [
        {
          "internalType": "uint256",
          "name": "pid",
          "type": "uint256"
        },
        {
          "internalType": "uint256",
          "name": "amount",
          "type": "uint256"
        },
        {
          "internalType": "address",
          "name": "to",
          "type": "address"
        }
      ],
      "name": "withdraw",
      "outputs": [],
      "stateMutability": "nonpayable",
      "type": "function"
    },
    {
      "inputs": [
        {
          "internalType": "uint256",
          "name": "pid",
          "type": "uint256"
        },
        {
          "internalType": "uint256",
          "name": "amount",
          "type": "uint256"
        },
        {
          "internalType": "address",
          "name": "to",
          "type": "address"
        }
      ],
      "name": "withdrawAndHarvest",
      "outputs": [],
      "stateMutability": "nonpayable",
      "type": "function"
    }
  ],
  "transactionHash": "0x315f190ea919b8028fa7dafc6a55fb45981988a3a337fac7cf50cb5ed2f8e4e3",
  "args": [
    "0x3Cf45063806D1fDF3eb0DAeB19E9446b9A96eB98"
  ],
  "solcInputHash": "3bd6d909416c84c198e774c130fd6398",
  "bytecode": "0x60a06040523480156200001157600080fd5b5060405162002c2f38038062002c2f833981016040819052620000349162000089565b600080546001600160a01b0319163390811782556040519091907f8be0079c531659141344cd1fd0a4f28419497f9722a3daafe3b4186f6b6457e0908290a360601b6001600160601b031916608052620000b9565b6000602082840312156200009b578081fd5b81516001600160a01b0381168114620000b2578182fd5b9392505050565b60805160601c612b4e620000e16000398061089b528061130352806119ab5250612b4e6000f3fe6080604052600436106101b75760003560e01c8063664b11a4116100ec57806393f1a40b1161008a578063d1abb90711610064578063d1abb907146104be578063d2423b51146104de578063e0b360bb146104ff578063e30c39781461051f576101b7565b806393f1a40b14610450578063ab7de0981461047e578063c346253d1461049e576101b7565b80637cd07e47116100c65780637cd07e47146103e657806388bba42f146103fb5780638da5cb5b1461041b5780638dbdbe6d14610430576101b7565b8063664b11a41461038457806378ed5d1f146103a65780637c516e94146103c6576101b7565b806323cf311811610159578063454b060811610133578063454b0608146103025780634e71e0c81461032257806351eb05a61461033757806357a5b58c14610364576101b7565b806323cf3118146102a25780632cd92b25146102c25780632f940c70146102e2576101b7565b80630ad58d2f116101955780630ad58d2f1461021e5780631526fe271461023e57806317caf6f11461026d57806318fccc7614610282576101b7565b8063010e5db5146101bc578063078dfbe7146101e7578063081e3eda14610209575b600080fd5b3480156101c857600080fd5b506101d1610534565b6040516101de9190612a02565b60405180910390f35b3480156101f357600080fd5b5061020761020236600461217d565b61053a565b005b34801561021557600080fd5b506101d1610629565b34801561022a57600080fd5b50610207610239366004612459565b61062f565b34801561024a57600080fd5b5061025e6102593660046123c4565b6107bf565b6040516101de939291906129d8565b34801561027957600080fd5b506101d1610801565b34801561028e57600080fd5b5061020761029d3660046123f4565b610807565b3480156102ae57600080fd5b506102076102bd36600461230e565b6109a1565b3480156102ce57600080fd5b506101d16102dd3660046123f4565b6109ed565b3480156102ee57600080fd5b506102076102fd3660046123f4565b610bed565b34801561030e57600080fd5b5061020761031d3660046123c4565b610d0e565b34801561032e57600080fd5b50610207610fba565b34801561034357600080fd5b506103576103523660046123c4565b611047565b6040516101de919061299f565b34801561037057600080fd5b5061020761037f366004612210565b6112cb565b34801561039057600080fd5b50610399611301565b6040516101de9190612527565b3480156103b257600080fd5b506103996103c13660046123c4565b611325565b3480156103d257600080fd5b506102076103e1366004612287565b61134c565b3480156103f257600080fd5b506103996113c0565b34801561040757600080fd5b50610207610416366004612486565b6113cf565b34801561042757600080fd5b5061039961153c565b34801561043c57600080fd5b5061020761044b366004612459565b61154b565b34801561045c57600080fd5b5061047061046b3660046123f4565b6116d6565b6040516101de929190612a4a565b34801561048a57600080fd5b50610207610499366004612423565b6116fa565b3480156104aa57600080fd5b506103996104b93660046123c4565b6118d0565b3480156104ca57600080fd5b506102076104d9366004612459565b6118dd565b6104f16104ec3660046121c7565b611b10565b6040516101de9291906125b9565b34801561050b57600080fd5b5061020761051a3660046123c4565b611ca0565b34801561052b57600080fd5b50610399611d0a565b60085481565b6000546001600160a01b0316331461056d5760405162461bcd60e51b8152600401610564906127cf565b60405180910390fd5b8115610608576001600160a01b0383161515806105875750805b6105a35760405162461bcd60e51b815260040161056490612732565b600080546040516001600160a01b03808716939216917f8be0079c531659141344cd1fd0a4f28419497f9722a3daafe3b4186f6b6457e091a3600080546001600160a01b0385166001600160a01b031991821617909155600180549091169055610624565b600180546001600160a01b0319166001600160a01b0385161790555b505050565b60035490565b610637612115565b61064084611047565b600085815260066020908152604080832033845290915290208151919250906106929064e8d4a510009061067e9087906001600160801b0316611d19565b8161068557fe5b6001840154919004611d56565b600182015580546106a39085611da3565b81556005805460009190879081106106b757fe5b6000918252602090912001546001600160a01b03169050801561073d5781546040516373f661ff60e11b81526001600160a01b0383169163e7ecc3fe9161070a918a9133918a9160009190600401612a0b565b600060405180830381600087803b15801561072457600080fd5b505af1158015610738573d6000803e3d6000fd5b505050505b61076b84866004898154811061074f57fe5b6000918252602090912001546001600160a01b03169190611dc6565b836001600160a01b031686336001600160a01b03167f8166bf25f8a2b7ed3c85049207da4358d16edbed977d23fa2ee6f0dde3ec2132886040516107af9190612a02565b60405180910390a4505050505050565b600381815481106107cc57fe5b6000918252602090912001546001600160801b03811691506001600160401b03600160801b8204811691600160c01b90041683565b60075481565b61080f612115565b61081883611047565b6000848152600660209081526040808320338452909152812082518154939450909264e8d4a510009161085491906001600160801b0316611d19565b8161085b57fe5b049050600061087f61087a846001015484611d5690919063ffffffff16565b611eb4565b60018401839055905080156108c2576108c26001600160a01b037f0000000000000000000000000000000000000000000000000000000000000000168683611dc6565b6000600587815481106108d157fe5b6000918252602090912001546001600160a01b0316905080156109565783546040516373f661ff60e11b81526001600160a01b0383169163e7ecc3fe91610923918b9133918c91899190600401612a0b565b600060405180830381600087803b15801561093d57600080fd5b505af1158015610951573d6000803e3d6000fd5b505050505b86336001600160a01b03167f71bab65ced2e5750775a0613be067df48ef06cf92a496ebf7663ae0660924954846040516109909190612a02565b60405180910390a350505050505050565b6000546001600160a01b031633146109cb5760405162461bcd60e51b8152600401610564906127cf565b600280546001600160a01b0319166001600160a01b0392909216919091179055565b60006109f7612115565b60038481548110610a0457fe5b600091825260208083206040805160608101825291909301546001600160801b0380821683526001600160401b03600160801b8304811684860152600160c01b90920490911682850152888552600683528385206001600160a01b0389168652909252918320825160048054949650919492169288908110610a8257fe5b6000918252602090912001546040516370a0823160e01b81526001600160a01b03909116906370a0823190610abb903090600401612527565b60206040518083038186803b158015610ad357600080fd5b505afa158015610ae7573d6000803e3d6000fd5b505050506040513d601f19601f82011682018060405250810190610b0b91906123dc565b905083602001516001600160401b031642118015610b2857508015155b15610bb4576000610b4f85602001516001600160401b031642611da390919063ffffffff16565b90506000600754610b8287604001516001600160401b0316610b7c60085486611d1990919063ffffffff16565b90611d19565b81610b8957fe5b049050610baf83610b9f8364e8d4a51000611d19565b81610ba657fe5b86919004611eda565b935050505b60018301548354610be29161087a9164e8d4a5100090610bd49087611d19565b81610bdb57fe5b0490611d56565b979650505050505050565b60008281526006602090815260408083203384529091528120805482825560018201839055600580549293919286908110610c2457fe5b6000918252602090912001546001600160a01b031690508015610ca9576040516373f661ff60e11b81526001600160a01b0382169063e7ecc3fe90610c76908890339089906000908190600401612a0b565b600060405180830381600087803b158015610c9057600080fd5b505af1158015610ca4573d6000803e3d6000fd5b505050505b610cbb84836004888154811061074f57fe5b836001600160a01b031685336001600160a01b03167f2cac5e20e1541d836381527a43f651851e302817b71dc8e810284e69210c1c6b85604051610cff9190612a02565b60405180910390a45050505050565b6002546001600160a01b0316610d365760405162461bcd60e51b815260040161056490612968565b600060048281548110610d4557fe5b60009182526020822001546040516370a0823160e01b81526001600160a01b03909116925082906370a0823190610d80903090600401612527565b60206040518083038186803b158015610d9857600080fd5b505afa158015610dac573d6000803e3d6000fd5b505050506040513d601f19601f82011682018060405250810190610dd091906123dc565b60025460405163095ea7b360e01b81529192506001600160a01b038085169263095ea7b392610e0592169085906004016125a0565b602060405180830381600087803b158015610e1f57600080fd5b505af1158015610e33573d6000803e3d6000fd5b505050506040513d601f19601f82011682018060405250810190610e57919061224f565b5060025460405163ce5494bb60e01b81526000916001600160a01b03169063ce5494bb90610e89908690600401612527565b602060405180830381600087803b158015610ea357600080fd5b505af1158015610eb7573d6000803e3d6000fd5b505050506040513d601f19601f82011682018060405250810190610edb919061226b565b6040516370a0823160e01b81529091506001600160a01b038216906370a0823190610f0a903090600401612527565b60206040518083038186803b158015610f2257600080fd5b505afa158015610f36573d6000803e3d6000fd5b505050506040513d601f19601f82011682018060405250810190610f5a91906123dc565b8214610f785760405162461bcd60e51b815260040161056490612920565b8060048581548110610f8657fe5b9060005260206000200160006101000a8154816001600160a01b0302191690836001600160a01b0316021790555050505050565b6001546001600160a01b0316338114610fe55760405162461bcd60e51b815260040161056490612804565b600080546040516001600160a01b03808516939216917f8be0079c531659141344cd1fd0a4f28419497f9722a3daafe3b4186f6b6457e091a3600080546001600160a01b039092166001600160a01b0319928316179055600180549091169055565b61104f612115565b6003828154811061105c57fe5b60009182526020918290206040805160608101825292909101546001600160801b03811683526001600160401b03600160801b82048116948401859052600160c01b909104169082015291504211156112c6576000600483815481106110be57fe5b6000918252602090912001546040516370a0823160e01b81526001600160a01b03909116906370a08231906110f7903090600401612527565b60206040518083038186803b15801561110f57600080fd5b505afa158015611123573d6000803e3d6000fd5b505050506040513d601f19601f8201168201806040525081019061114791906123dc565b905080156111ea57600061117183602001516001600160401b031642611da390919063ffffffff16565b9050600060075461119e85604001516001600160401b0316610b7c60085486611d1990919063ffffffff16565b816111a557fe5b0490506111dc6111cb846111be8464e8d4a51000611d19565b816111c557fe5b04611efd565b85516001600160801b031690611f26565b6001600160801b0316845250505b6111f342611f55565b6001600160401b03166020830152600380548391908590811061121257fe5b6000918252602091829020835191018054848401516040958601516001600160801b03199092166001600160801b039094169390931767ffffffffffffffff60801b1916600160801b6001600160401b0394851602176001600160c01b0316600160c01b93909116929092029190911790558301518351915185927f0fc9545022a542541ad085d091fb09a2ab36fee366a4576ab63714ea907ad353926112bc9290918691612a58565b60405180910390a2505b919050565b8060005b818110156112fb576112f28484838181106112e657fe5b90506020020135611047565b506001016112cf565b50505050565b7f000000000000000000000000000000000000000000000000000000000000000081565b6004818154811061133257fe5b6000918252602090912001546001600160a01b0316905081565b60405163d505accf60e01b81526001600160a01b0389169063d505accf90611384908a908a908a908a908a908a908a9060040161255f565b600060405180830381600087803b15801561139e57600080fd5b505af11580156113b2573d6000803e3d6000fd5b505050505050505050505050565b6002546001600160a01b031681565b6000546001600160a01b031633146113f95760405162461bcd60e51b8152600401610564906127cf565b611438836114326003878154811061140d57fe5b60009182526020909120015460075490600160c01b90046001600160401b0316611da3565b90611eda565b60075561144483611f55565b6003858154811061145157fe5b9060005260206000200160000160186101000a8154816001600160401b0302191690836001600160401b0316021790555080156114c557816005858154811061149657fe5b9060005260206000200160006101000a8154816001600160a01b0302191690836001600160a01b031602179055505b806114f157600584815481106114d757fe5b6000918252602090912001546001600160a01b03166114f3565b815b6001600160a01b0316847f95895a6ab1df54420d241b55243258a33e61b2194db66c1179ec521aae8e1865858460405161152e929190612a3a565b60405180910390a350505050565b6000546001600160a01b031681565b611553612115565b61155c84611047565b60008581526006602090815260408083206001600160a01b0387168452909152902080549192509061158e9085611eda565b815581516115c59064e8d4a51000906115b19087906001600160801b0316611d19565b816115b857fe5b6001840154919004611f7e565b81600101819055506000600586815481106115dc57fe5b6000918252602090912001546001600160a01b0316905080156116625781546040516373f661ff60e11b81526001600160a01b0383169163e7ecc3fe9161162f918a918991829160009190600401612a0b565b600060405180830381600087803b15801561164957600080fd5b505af115801561165d573d6000803e3d6000fd5b505050505b61169233308760048a8154811061167557fe5b6000918252602090912001546001600160a01b0316929190611fc4565b836001600160a01b031686336001600160a01b03167f02d7e648dd130fc184d383e55bb126ac4c9c60e8f94bf05acdf557ba2d540b47886040516107af9190612a02565b60066020908152600092835260408084209091529082529020805460019091015482565b6000546001600160a01b031633146117245760405162461bcd60e51b8152600401610564906127cf565b6007546117319084611eda565b6007556004805460018181019092557f8a35acfbc15ff81a39ae7d344fd709f28e8600b4aa8c65c6b64bfe7fe36bd19b0180546001600160a01b038086166001600160a01b03199283161790925560058054938401815560009081527f036b6384b5eca791c62761152d0c79bb0604c104a5fb6f4eb0703f3154bb3db09093018054928516929091169190911790556040805160608101909152908152600390602081016117de42611f55565b6001600160401b031681526020016117f586611f55565b6001600160401b039081169091528254600181810185556000948552602094859020845192018054958501516040909501518416600160c01b026001600160c01b0395909416600160801b0267ffffffffffffffff60801b196001600160801b039094166001600160801b0319909716969096179290921694909417929092161790556004546001600160a01b03808416929085169161189491611da3565b7f81ee0f8c5c46e2cb41984886f77a84181724abb86c32a5f6de539b07509d45e5866040516118c39190612a02565b60405180910390a4505050565b6005818154811061133257fe5b6118e5612115565b6118ee84611047565b6000858152600660209081526040808320338452909152812082518154939450909264e8d4a510009161192a91906001600160801b0316611d19565b8161193157fe5b049050600061195061087a846001015484611d5690919063ffffffff16565b905061198b64e8d4a5100061197b86600001516001600160801b031689611d1990919063ffffffff16565b8161198257fe5b84919004611d56565b6001840155825461199c9087611da3565b83556119d26001600160a01b037f0000000000000000000000000000000000000000000000000000000000000000168683611dc6565b6000600588815481106119e157fe5b6000918252602090912001546001600160a01b031690508015611a665783546040516373f661ff60e11b81526001600160a01b0383169163e7ecc3fe91611a33918c9133918c91899190600401612a0b565b600060405180830381600087803b158015611a4d57600080fd5b505af1158015611a61573d6000803e3d6000fd5b505050505b611a78868860048b8154811061074f57fe5b856001600160a01b031688336001600160a01b03167f8166bf25f8a2b7ed3c85049207da4358d16edbed977d23fa2ee6f0dde3ec21328a604051611abc9190612a02565b60405180910390a487336001600160a01b03167f71bab65ced2e5750775a0613be067df48ef06cf92a496ebf7663ae066092495484604051611afe9190612a02565b60405180910390a35050505050505050565b606080836001600160401b0381118015611b2957600080fd5b50604051908082528060200260200182016040528015611b53578160200160208202803683370190505b509150836001600160401b0381118015611b6c57600080fd5b50604051908082528060200260200182016040528015611ba057816020015b6060815260200190600190039081611b8b5790505b50905060005b84811015611c97576000606030888885818110611bbf57fe5b9050602002810190611bd19190612a82565b604051611bdf9291906124fb565b600060405180830381855af49150503d8060008114611c1a576040519150601f19603f3d011682016040523d82523d6000602084013e611c1f565b606091505b50915091508180611c2e575085155b611c37826120b5565b90611c555760405162461bcd60e51b81526004016105649190612653565b5081858481518110611c6357fe5b60200260200101901515908115158152505080848481518110611c8257fe5b60209081029190910101525050600101611ba6565b50935093915050565b6000546001600160a01b03163314611cca5760405162461bcd60e51b8152600401610564906127cf565b60088190556040517f3cc1bed7c1129d72cc4820a3cc81b8403194dee9d0b32183b4c9eaabc7470e2390611cff908390612a02565b60405180910390a150565b6001546001600160a01b031681565b6000811580611d3457505080820282828281611d3157fe5b04145b611d505760405162461bcd60e51b8152600401610564906128e9565b92915050565b6000818303818312801590611d6b5750838113155b80611d805750600083128015611d8057508381135b611d9c5760405162461bcd60e51b815260040161056490612870565b9392505050565b80820382811115611d505760405162461bcd60e51b815260040161056490612666565b60006060846001600160a01b031663a9059cbb8585604051602401611dec9291906125a0565b6040516020818303038152906040529060e01b6020820180516001600160e01b038381831617835250505050604051611e25919061250b565b6000604051808303816000865af19150503d8060008114611e62576040519150601f19603f3d011682016040523d82523d6000602084013e611e67565b606091505b5091509150818015611e91575080511580611e91575080806020019051810190611e91919061224f565b611ead5760405162461bcd60e51b8152600401610564906126ba565b5050505050565b600080821215611ed65760405162461bcd60e51b815260040161056490612695565b5090565b81810181811015611d505760405162461bcd60e51b815260040161056490612798565b60006001600160801b03821115611ed65760405162461bcd60e51b815260040161056490612761565b8181016001600160801b038083169082161015611d505760405162461bcd60e51b815260040161056490612798565b60006001600160401b03821115611ed65760405162461bcd60e51b815260040161056490612839565b6000828201818312801590611f935750838112155b80611fa85750600083128015611fa857508381125b611d9c5760405162461bcd60e51b8152600401610564906126f1565b60006060856001600160a01b03166323b872dd868686604051602401611fec9392919061253b565b6040516020818303038152906040529060e01b6020820180516001600160e01b038381831617835250505050604051612025919061250b565b6000604051808303816000865af19150503d8060008114612062576040519150601f19603f3d011682016040523d82523d6000602084013e612067565b606091505b5091509150818015612091575080511580612091575080806020019051810190612091919061224f565b6120ad5760405162461bcd60e51b8152600401610564906128b4565b505050505050565b60606044825110156120fb575060408051808201909152601d81527f5472616e73616374696f6e2072657665727465642073696c656e746c7900000060208201526112c6565b60048201915081806020019051810190611d50919061232a565b604080516060810182526000808252602082018190529181019190915290565b60008083601f840112612146578182fd5b5081356001600160401b0381111561215c578182fd5b602083019150836020808302850101111561217657600080fd5b9250929050565b600080600060608486031215612191578283fd5b833561219c81612af2565b925060208401356121ac81612b0a565b915060408401356121bc81612b0a565b809150509250925092565b6000806000604084860312156121db578283fd5b83356001600160401b038111156121f0578384fd5b6121fc86828701612135565b90945092505060208401356121bc81612b0a565b60008060208385031215612222578182fd5b82356001600160401b03811115612237578283fd5b61224385828601612135565b90969095509350505050565b600060208284031215612260578081fd5b8151611d9c81612b0a565b60006020828403121561227c578081fd5b8151611d9c81612af2565b600080600080600080600080610100898b0312156122a3578384fd5b88356122ae81612af2565b975060208901356122be81612af2565b965060408901356122ce81612af2565b9550606089013594506080890135935060a089013560ff811681146122f1578384fd5b979a969950949793969295929450505060c08201359160e0013590565b60006020828403121561231f578081fd5b8135611d9c81612af2565b60006020828403121561233b578081fd5b81516001600160401b0380821115612351578283fd5b818401915084601f830112612364578283fd5b815181811115612372578384fd5b604051601f8201601f191681016020018381118282101715612392578586fd5b6040528181528382016020018710156123a9578485fd5b6123ba826020830160208701612ac6565b9695505050505050565b6000602082840312156123d5578081fd5b5035919050565b6000602082840312156123ed578081fd5b5051919050565b60008060408385031215612406578182fd5b82359150602083013561241881612af2565b809150509250929050565b600080600060608486031215612437578081fd5b83359250602084013561244981612af2565b915060408401356121bc81612af2565b60008060006060848603121561246d578081fd5b833592506020840135915060408401356121bc81612af2565b6000806000806080858703121561249b578182fd5b843593506020850135925060408501356124b481612af2565b915060608501356124c481612b0a565b939692955090935050565b600081518084526124e7816020860160208601612ac6565b601f01601f19169290920160200192915050565b6000828483379101908152919050565b6000825161251d818460208701612ac6565b9190910192915050565b6001600160a01b0391909116815260200190565b6001600160a01b039384168152919092166020820152604081019190915260600190565b6001600160a01b0397881681529590961660208601526040850193909352606084019190915260ff16608083015260a082015260c081019190915260e00190565b6001600160a01b03929092168252602082015260400190565b604080825283519082018190526000906020906060840190828701845b828110156125f45781511515845292840192908401906001016125d6565b5050508381038285015280855161260b8184612a02565b91508192508381028201848801865b838110156126445785830385526126328383516124cf565b9487019492509086019060010161261a565b50909998505050505050505050565b600060208252611d9c60208301846124cf565b602080825260159082015274426f72696e674d6174683a20556e646572666c6f7760581b604082015260600190565b6020808252600b908201526a0496e7465676572203c20360ac1b604082015260600190565b6020808252601c908201527f426f72696e6745524332303a205472616e73666572206661696c656400000000604082015260600190565b60208082526021908201527f5369676e6564536166654d6174683a206164646974696f6e206f766572666c6f6040820152607760f81b606082015260800190565b6020808252601590820152744f776e61626c653a207a65726f206164647265737360581b604082015260600190565b6020808252601c908201527f426f72696e674d6174683a2075696e74313238204f766572666c6f7700000000604082015260600190565b60208082526018908201527f426f72696e674d6174683a20416464204f766572666c6f770000000000000000604082015260600190565b6020808252818101527f4f776e61626c653a2063616c6c6572206973206e6f7420746865206f776e6572604082015260600190565b6020808252818101527f4f776e61626c653a2063616c6c657220213d2070656e64696e67206f776e6572604082015260600190565b6020808252601b908201527f426f72696e674d6174683a2075696e743634204f766572666c6f770000000000604082015260600190565b60208082526024908201527f5369676e6564536166654d6174683a207375627472616374696f6e206f766572604082015263666c6f7760e01b606082015260800190565b6020808252818101527f426f72696e6745524332303a205472616e7366657246726f6d206661696c6564604082015260600190565b60208082526018908201527f426f72696e674d6174683a204d756c204f766572666c6f770000000000000000604082015260600190565b60208082526028908201527f4d61737465724c657056323a206d696772617465642062616c616e6365206d756040820152670e6e840dac2e8c6d60c31b606082015260800190565b6020808252601c908201527f4d61737465724c657056323a206e6f206d69677261746f722073657400000000604082015260600190565b81516001600160801b031681526020808301516001600160401b0390811691830191909152604092830151169181019190915260600190565b6001600160801b039390931683526001600160401b03918216602084015216604082015260600190565b90815260200190565b9485526001600160a01b0393841660208601529190921660408401526060830191909152608082015260a00190565b9182521515602082015260400190565b918252602082015260400190565b6001600160401b0393909316835260208301919091526001600160801b0316604082015260600190565b6000808335601e19843603018112612a98578283fd5b8301803591506001600160401b03821115612ab1578283fd5b60200191503681900382131561217657600080fd5b60005b83811015612ae1578181015183820152602001612ac9565b838111156112fb5750506000910152565b6001600160a01b0381168114612b0757600080fd5b50565b8015158114612b0757600080fdfea26469706673582212209f8ba15cbdad771df47b2916b9dce65f5926836c83b3caf8d0934d6a72dd925f64736f6c634300060c0033",
  "devdoc": {
    "kind": "dev",
    "methods": {
      "add(uint256,address,address)": {
        "params": {
          "_lpToken": "Address of the LP ERC-20 token.",
          "_rewarder": "Address of the rewarder delegate.",
          "allocPoint": "AP of the new pool."
        }
      },
      "constructor": {
        "params": {
          "_lep": "The SUSHI token contract address."
        }
      },
      "deposit(uint256,uint256,address)": {
        "params": {
          "amount": "LP token amount to deposit.",
          "pid": "The index of the pool. See `poolInfo`.",
          "to": "The receiver of `amount` deposit benefit."
        }
      },
      "emergencyWithdraw(uint256,address)": {
        "params": {
          "pid": "The index of the pool. See `poolInfo`.",
          "to": "Receiver of the LP tokens."
        }
      },
      "harvest(uint256,address)": {
        "params": {
          "pid": "The index of the pool. See `poolInfo`.",
          "to": "Receiver of SUSHI rewards."
        }
      },
      "massUpdatePools(uint256[])": {
        "params": {
          "pids": "Pool IDs of all to be updated. Make sure to update all active pools."
        }
      },
      "migrate(uint256)": {
        "params": {
          "_pid": "The index of the pool. See `poolInfo`."
        }
      },
      "pendingLep(uint256,address)": {
        "params": {
          "_pid": "The index of the pool. See `poolInfo`.",
          "_user": "Address of user."
        },
        "returns": {
          "pending": "LEP reward for a given user."
        }
      },
      "set(uint256,uint256,address,bool)": {
        "params": {
          "_allocPoint": "New AP of the pool.",
          "_pid": "The index of the pool. See `poolInfo`.",
          "_rewarder": "Address of the rewarder delegate.",
          "overwrite": "True if _rewarder should be `set`. Otherwise `_rewarder` is ignored."
        }
      },
      "setLepPerSecond(uint256)": {
        "params": {
          "_lepPerSecond": "The amount of Sushi to be distributed per second."
        }
      },
      "setMigrator(address)": {
        "params": {
          "_migrator": "The contract address to set."
        }
      },
      "updatePool(uint256)": {
        "params": {
          "pid": "The index of the pool. See `poolInfo`."
        },
        "returns": {
          "pool": "Returns the pool that was updated."
        }
      },
      "withdraw(uint256,uint256,address)": {
        "params": {
          "amount": "LP token amount to withdraw.",
          "pid": "The index of the pool. See `poolInfo`.",
          "to": "Receiver of the LP tokens."
        }
      },
      "withdrawAndHarvest(uint256,uint256,address)": {
        "params": {
          "amount": "LP token amount to withdraw.",
          "pid": "The index of the pool. See `poolInfo`.",
          "to": "Receiver of the LP tokens and LEP rewards."
        }
      }
    },
    "stateVariables": {
      "totalAllocPoint": {
        "details": "Total allocation points. Must be the sum of all allocation points in all pools."
      }
    },
    "version": 1
  },
  "userdoc": {
    "kind": "user",
    "methods": {
      "LEP()": {
        "notice": "Address of LEP contract."
      },
      "add(uint256,address,address)": {
        "notice": "Add a new LP to the pool. Can only be called by the owner. DO NOT add the same LP token more than once. Rewards will be messed up if you do."
      },
      "deposit(uint256,uint256,address)": {
        "notice": "Deposit LP tokens to MCV2 for LEP allocation."
      },
      "emergencyWithdraw(uint256,address)": {
        "notice": "Withdraw without caring about rewards. EMERGENCY ONLY."
      },
      "harvest(uint256,address)": {
        "notice": "Harvest proceeds for transaction sender to `to`."
      },
      "lpToken(uint256)": {
        "notice": "Address of the LP token for each MCV2 pool."
      },
      "massUpdatePools(uint256[])": {
        "notice": "Update reward variables for all pools. Be careful of gas spending!"
      },
      "migrate(uint256)": {
        "notice": "Migrate LP token to another LP contract through the `migrator` contract."
      },
      "pendingLep(uint256,address)": {
        "notice": "View function to see pending LEP on frontend."
      },
      "poolInfo(uint256)": {
        "notice": "Info of each MCV2 pool."
      },
      "poolLength()": {
        "notice": "Returns the number of MCV2 pools."
      },
      "rewarder(uint256)": {
        "notice": "Address of each `IRewarder` contract in MCV2."
      },
      "set(uint256,uint256,address,bool)": {
        "notice": "Update the given pool's LEP allocation point and `IRewarder` contract. Can only be called by the owner."
      },
      "setLepPerSecond(uint256)": {
        "notice": "Sets the lep per second to be distributed. Can only be called by the owner."
      },
      "setMigrator(address)": {
        "notice": "Set the `migrator` contract. Can only be called by the owner."
      },
      "updatePool(uint256)": {
        "notice": "Update reward variables of the given pool."
      },
      "userInfo(uint256,address)": {
        "notice": "Info of each user that stakes LP tokens."
      },
      "withdraw(uint256,uint256,address)": {
        "notice": "Withdraw LP tokens from MCV2."
      },
      "withdrawAndHarvest(uint256,uint256,address)": {
        "notice": "Withdraw LP tokens from MCV2 and harvest proceeds for transaction sender to `to`."
      }
    },
    "notice": "The (older) MasterLep contract gives out a constant number of LEP tokens per block. It is the only address with minting rights for LEP. The idea for this MasterLep V2 (MCV2) contract is therefore to be the owner of a dummy token that is deposited into the MasterLep V1 (MCV1) contract. The allocation point for this pool on MCV1 is the total allocation point for all pools that receive double incentives.",
    "version": 1
  },
  "storageLayout": {
    "storage": [
      {
        "astId": 149,
        "contract": "contracts/MiniChefV2.sol:MiniChefV2",
        "label": "owner",
        "offset": 0,
        "slot": "0",
        "type": "t_address"
      },
      {
        "astId": 151,
        "contract": "contracts/MiniChefV2.sol:MiniChefV2",
        "label": "pendingOwner",
        "offset": 0,
        "slot": "1",
        "type": "t_address"
      },
      {
        "astId": 2142,
        "contract": "contracts/MiniChefV2.sol:MiniChefV2",
        "label": "migrator",
        "offset": 0,
        "slot": "2",
        "type": "t_contract(IMigratorChef)2108"
      },
      {
        "astId": 2146,
        "contract": "contracts/MiniChefV2.sol:MiniChefV2",
        "label": "poolInfo",
        "offset": 0,
        "slot": "3",
        "type": "t_array(t_struct(PoolInfo)2137_storage)dyn_storage"
      },
      {
        "astId": 2150,
        "contract": "contracts/MiniChefV2.sol:MiniChefV2",
        "label": "lpToken",
        "offset": 0,
        "slot": "4",
        "type": "t_array(t_contract(IERC20)337)dyn_storage"
      },
      {
        "astId": 2154,
        "contract": "contracts/MiniChefV2.sol:MiniChefV2",
        "label": "rewarder",
        "offset": 0,
        "slot": "5",
        "type": "t_array(t_contract(IRewarder)3320)dyn_storage"
      },
      {
        "astId": 2161,
        "contract": "contracts/MiniChefV2.sol:MiniChefV2",
        "label": "userInfo",
        "offset": 0,
        "slot": "6",
        "type": "t_mapping(t_uint256,t_mapping(t_address,t_struct(UserInfo)2130_storage))"
      },
      {
        "astId": 2164,
        "contract": "contracts/MiniChefV2.sol:MiniChefV2",
        "label": "totalAllocPoint",
        "offset": 0,
        "slot": "7",
        "type": "t_uint256"
      },
      {
        "astId": 2166,
        "contract": "contracts/MiniChefV2.sol:MiniChefV2",
        "label": "lepPerSecond",
        "offset": 0,
        "slot": "8",
        "type": "t_uint256"
      }
    ],
    "types": {
      "t_address": {
        "encoding": "inplace",
        "label": "address",
        "numberOfBytes": "20"
      },
      "t_array(t_contract(IERC20)337)dyn_storage": {
        "base": "t_contract(IERC20)337",
        "encoding": "dynamic_array",
        "label": "contract IERC20[]",
        "numberOfBytes": "32"
      },
      "t_array(t_contract(IRewarder)3320)dyn_storage": {
        "base": "t_contract(IRewarder)3320",
        "encoding": "dynamic_array",
        "label": "contract IRewarder[]",
        "numberOfBytes": "32"
      },
      "t_array(t_struct(PoolInfo)2137_storage)dyn_storage": {
        "base": "t_struct(PoolInfo)2137_storage",
        "encoding": "dynamic_array",
        "label": "struct MiniChefV2.PoolInfo[]",
        "numberOfBytes": "32"
      },
      "t_contract(IERC20)337": {
        "encoding": "inplace",
        "label": "contract IERC20",
        "numberOfBytes": "20"
      },
      "t_contract(IMigratorChef)2108": {
        "encoding": "inplace",
        "label": "contract IMigratorChef",
        "numberOfBytes": "20"
      },
      "t_contract(IRewarder)3320": {
        "encoding": "inplace",
        "label": "contract IRewarder",
        "numberOfBytes": "20"
      },
      "t_int256": {
        "encoding": "inplace",
        "label": "int256",
        "numberOfBytes": "32"
      },
      "t_mapping(t_address,t_struct(UserInfo)2130_storage)": {
        "encoding": "mapping",
        "key": "t_address",
        "label": "mapping(address => struct MiniChefV2.UserInfo)",
        "numberOfBytes": "32",
        "value": "t_struct(UserInfo)2130_storage"
      },
      "t_mapping(t_uint256,t_mapping(t_address,t_struct(UserInfo)2130_storage))": {
        "encoding": "mapping",
        "key": "t_uint256",
        "label": "mapping(uint256 => mapping(address => struct MiniChefV2.UserInfo))",
        "numberOfBytes": "32",
        "value": "t_mapping(t_address,t_struct(UserInfo)2130_storage)"
      },
      "t_struct(PoolInfo)2137_storage": {
        "encoding": "inplace",
        "label": "struct MiniChefV2.PoolInfo",
        "members": [
          {
            "astId": 2132,
            "contract": "contracts/MiniChefV2.sol:MiniChefV2",
            "label": "accLepPerShare",
            "offset": 0,
            "slot": "0",
            "type": "t_uint128"
          },
          {
            "astId": 2134,
            "contract": "contracts/MiniChefV2.sol:MiniChefV2",
            "label": "lastRewardTime",
            "offset": 16,
            "slot": "0",
            "type": "t_uint64"
          },
          {
            "astId": 2136,
            "contract": "contracts/MiniChefV2.sol:MiniChefV2",
            "label": "allocPoint",
            "offset": 24,
            "slot": "0",
            "type": "t_uint64"
          }
        ],
        "numberOfBytes": "32"
      },
      "t_struct(UserInfo)2130_storage": {
        "encoding": "inplace",
        "label": "struct MiniChefV2.UserInfo",
        "members": [
          {
            "astId": 2127,
            "contract": "contracts/MiniChefV2.sol:MiniChefV2",
            "label": "amount",
            "offset": 0,
            "slot": "0",
            "type": "t_uint256"
          },
          {
            "astId": 2129,
            "contract": "contracts/MiniChefV2.sol:MiniChefV2",
            "label": "rewardDebt",
            "offset": 0,
            "slot": "1",
            "type": "t_int256"
          }
        ],
        "numberOfBytes": "64"
      },
      "t_uint128": {
        "encoding": "inplace",
        "label": "uint128",
        "numberOfBytes": "16"
      },
      "t_uint256": {
        "encoding": "inplace",
        "label": "uint256",
        "numberOfBytes": "32"
      },
      "t_uint64": {
        "encoding": "inplace",
        "label": "uint64",
        "numberOfBytes": "8"
      }
    }
  }
}